{
  "contractName": "FishermanRole",
  "abi": [
    {
      "inputs": [],
      "payable": false,
      "stateMutability": "nonpayable",
      "type": "constructor"
    },
    {
      "anonymous": false,
      "inputs": [
        {
          "indexed": true,
          "name": "account",
          "type": "address"
        }
      ],
      "name": "FishermanAdded",
      "type": "event"
    },
    {
      "anonymous": false,
      "inputs": [
        {
          "indexed": true,
          "name": "account",
          "type": "address"
        }
      ],
      "name": "FishermanRemoved",
      "type": "event"
    },
    {
      "constant": true,
      "inputs": [
        {
          "name": "account",
          "type": "address"
        }
      ],
      "name": "isFisherman",
      "outputs": [
        {
          "name": "",
          "type": "bool"
        }
      ],
      "payable": false,
      "stateMutability": "view",
      "type": "function"
    },
    {
      "constant": false,
      "inputs": [
        {
          "name": "account",
          "type": "address"
        }
      ],
      "name": "addFisherman",
      "outputs": [],
      "payable": false,
      "stateMutability": "nonpayable",
      "type": "function"
    },
    {
      "constant": false,
      "inputs": [],
      "name": "renounceFisherman",
      "outputs": [],
      "payable": false,
      "stateMutability": "nonpayable",
      "type": "function"
    }
  ],
  "bytecode": "0x608060405234801561001057600080fd5b506100293361002e640100000000026401000000009004565b6101e8565b61004f81600061009564010000000002610358179091906401000000009004565b8073ffffffffffffffffffffffffffffffffffffffff167fed8c08737b37aef2af953c3b930fa5e3f9a03f87a0a5a1e78eea37cdcbea99fc60405160405180910390a250565b600073ffffffffffffffffffffffffffffffffffffffff168173ffffffffffffffffffffffffffffffffffffffff16141515156100d157600080fd5b6100ea8282610154640100000000026401000000009004565b1515156100f657600080fd5b60018260000160008373ffffffffffffffffffffffffffffffffffffffff1673ffffffffffffffffffffffffffffffffffffffff16815260200190815260200160002060006101000a81548160ff0219169083151502179055505050565b60008073ffffffffffffffffffffffffffffffffffffffff168273ffffffffffffffffffffffffffffffffffffffff161415151561019157600080fd5b8260000160008373ffffffffffffffffffffffffffffffffffffffff1673ffffffffffffffffffffffffffffffffffffffff16815260200190815260200160002060009054906101000a900460ff16905092915050565b610434806101f76000396000f3fe608060405260043610610057576000357c0100000000000000000000000000000000000000000000000000000000900463ffffffff16806307aa94d61461005c5780639c8a893814610073578063f868e6ba146100c4575b600080fd5b34801561006857600080fd5b5061007161012d565b005b34801561007f57600080fd5b506100c26004803603602081101561009657600080fd5b81019080803573ffffffffffffffffffffffffffffffffffffffff169060200190929190505050610138565b005b3480156100d057600080fd5b50610113600480360360208110156100e757600080fd5b81019080803573ffffffffffffffffffffffffffffffffffffffff169060200190929190505050610144565b604051808215151515815260200191505060405180910390f35b61013633610161565b565b610141816101bb565b50565b600061015a82600061021590919063ffffffff16565b9050919050565b6101758160006102a990919063ffffffff16565b8073ffffffffffffffffffffffffffffffffffffffff167ff56c56653b8d7dabb804d2c9d05ae558d0ed3825cdf8922f4622e49985f4843760405160405180910390a250565b6101cf81600061035890919063ffffffff16565b8073ffffffffffffffffffffffffffffffffffffffff167fed8c08737b37aef2af953c3b930fa5e3f9a03f87a0a5a1e78eea37cdcbea99fc60405160405180910390a250565b60008073ffffffffffffffffffffffffffffffffffffffff168273ffffffffffffffffffffffffffffffffffffffff161415151561025257600080fd5b8260000160008373ffffffffffffffffffffffffffffffffffffffff1673ffffffffffffffffffffffffffffffffffffffff16815260200190815260200160002060009054906101000a900460ff16905092915050565b600073ffffffffffffffffffffffffffffffffffffffff168173ffffffffffffffffffffffffffffffffffffffff16141515156102e557600080fd5b6102ef8282610215565b15156102fa57600080fd5b60008260000160008373ffffffffffffffffffffffffffffffffffffffff1673ffffffffffffffffffffffffffffffffffffffff16815260200190815260200160002060006101000a81548160ff0219169083151502179055505050565b600073ffffffffffffffffffffffffffffffffffffffff168173ffffffffffffffffffffffffffffffffffffffff161415151561039457600080fd5b61039e8282610215565b1515156103aa57600080fd5b60018260000160008373ffffffffffffffffffffffffffffffffffffffff1673ffffffffffffffffffffffffffffffffffffffff16815260200190815260200160002060006101000a81548160ff021916908315150217905550505056fea165627a7a723058205c4de6b57713ece7c9fffe8591fa2e49791f3aa7d1d1bdb5a5cd62b6e98d4bb40029",
  "source": "pragma solidity ^0.5.0;\n\n// Import the library 'Roles'\nimport \"./Roles.sol\";\n\n// Define a contract 'FishermanRole' to manage this role - add, remove, check\ncontract FishermanRole {\n  using Roles for Roles.Role;\n\n  // Define 2 events, one for Adding, and other for Removing\n  event FishermanAdded(address indexed account);\n  event FishermanRemoved(address indexed account);\n\n  // Define a struct 'Fishermen' by inheriting from 'Roles' library, struct Role\n  Roles.Role private Fishermen;\n\n  // In the constructor make the address that deploys this contract the 1st Fisherman\n  constructor() public {\n    _addFisherman(msg.sender);\n  }\n\n  // Define a modifier that checks to see if msg.sender has the appropriate role\n  modifier onlyFisherman() {\n    require(isFisherman(msg.sender), 'Not a Fisherman');\n    _;\n  }\n\n  // Define a function 'isFisherman' to check this role\n  function isFisherman(address account) public view returns (bool) {\n    return Fishermen.has(account);\n  }\n\n  // Define a function 'addFisherman' that adds this role\n  function addFisherman(address account) public {\n    _addFisherman(account);\n  }\n\n  // Define a function 'renounceFisherman' to renounce this role\n  function renounceFisherman() public {\n    _removeFisherman(msg.sender);\n  }\n\n  // Define an internal function '_addFisherman' to add this role, called by 'addFisherman'\n  function _addFisherman(address account) internal {\n    Fishermen.add(account);\n    emit FishermanAdded(account);\n  }\n\n  // Define an internal function '_removeFisherman' to remove this role, called by 'removeFisherman'\n  function _removeFisherman(address account) internal {\n    Fishermen.remove(account);\n    emit FishermanRemoved(account);\n  }\n}",
  "sourcePath": "D:\\Blockchain\\Udacity\\Project6B\\TunaFish\\project\\contracts\\tunaaccesscontrol\\FishermanRole.sol",
  "compiler": {
    "name": "solc",
    "version": "0.5.0+commit.1d4f565a.Emscripten.clang"
  },
  "schemaVersion": "3.0.9",
  "updatedAt": "2019-05-28T09:24:11.184Z",
  "devdoc": {
    "methods": {}
  },
  "userdoc": {
    "methods": {}
  }
}