{
  "contractName": "RegulatorRole",
  "abi": [
    {
      "inputs": [],
      "payable": false,
      "stateMutability": "nonpayable",
      "type": "constructor"
    },
    {
      "anonymous": false,
      "inputs": [
        {
          "indexed": true,
          "name": "account",
          "type": "address"
        }
      ],
      "name": "RegulatorAdded",
      "type": "event"
    },
    {
      "anonymous": false,
      "inputs": [
        {
          "indexed": true,
          "name": "account",
          "type": "address"
        }
      ],
      "name": "RegulatorRemoved",
      "type": "event"
    },
    {
      "constant": true,
      "inputs": [
        {
          "name": "account",
          "type": "address"
        }
      ],
      "name": "isRegulator",
      "outputs": [
        {
          "name": "",
          "type": "bool"
        }
      ],
      "payable": false,
      "stateMutability": "view",
      "type": "function"
    },
    {
      "constant": false,
      "inputs": [
        {
          "name": "account",
          "type": "address"
        }
      ],
      "name": "addRegulator",
      "outputs": [],
      "payable": false,
      "stateMutability": "nonpayable",
      "type": "function"
    },
    {
      "constant": false,
      "inputs": [],
      "name": "renounceRegulator",
      "outputs": [],
      "payable": false,
      "stateMutability": "nonpayable",
      "type": "function"
    }
  ],
  "bytecode": "0x608060405234801561001057600080fd5b506100293361002e640100000000026401000000009004565b6101e8565b61004f81600061009564010000000002610358179091906401000000009004565b8073ffffffffffffffffffffffffffffffffffffffff167f2860b5ba44f983f8f363ee6eeb3c24cbca3096803fbdd5129b9e253f01cac07660405160405180910390a250565b600073ffffffffffffffffffffffffffffffffffffffff168173ffffffffffffffffffffffffffffffffffffffff16141515156100d157600080fd5b6100ea8282610154640100000000026401000000009004565b1515156100f657600080fd5b60018260000160008373ffffffffffffffffffffffffffffffffffffffff1673ffffffffffffffffffffffffffffffffffffffff16815260200190815260200160002060006101000a81548160ff0219169083151502179055505050565b60008073ffffffffffffffffffffffffffffffffffffffff168273ffffffffffffffffffffffffffffffffffffffff161415151561019157600080fd5b8260000160008373ffffffffffffffffffffffffffffffffffffffff1673ffffffffffffffffffffffffffffffffffffffff16815260200190815260200160002060009054906101000a900460ff16905092915050565b610434806101f76000396000f3fe608060405260043610610057576000357c0100000000000000000000000000000000000000000000000000000000900463ffffffff1680631beadbe21461005c57806354fc916914610073578063ac63f3c7146100dc575b600080fd5b34801561006857600080fd5b5061007161012d565b005b34801561007f57600080fd5b506100c26004803603602081101561009657600080fd5b81019080803573ffffffffffffffffffffffffffffffffffffffff169060200190929190505050610138565b604051808215151515815260200191505060405180910390f35b3480156100e857600080fd5b5061012b600480360360208110156100ff57600080fd5b81019080803573ffffffffffffffffffffffffffffffffffffffff169060200190929190505050610155565b005b61013633610161565b565b600061014e8260006101bb90919063ffffffff16565b9050919050565b61015e8161024f565b50565b6101758160006102a990919063ffffffff16565b8073ffffffffffffffffffffffffffffffffffffffff167fc8ecc453f78c13ccc7596603b61935f29b99dc15bb91b91647e1ccf2469ad00a60405160405180910390a250565b60008073ffffffffffffffffffffffffffffffffffffffff168273ffffffffffffffffffffffffffffffffffffffff16141515156101f857600080fd5b8260000160008373ffffffffffffffffffffffffffffffffffffffff1673ffffffffffffffffffffffffffffffffffffffff16815260200190815260200160002060009054906101000a900460ff16905092915050565b61026381600061035890919063ffffffff16565b8073ffffffffffffffffffffffffffffffffffffffff167f2860b5ba44f983f8f363ee6eeb3c24cbca3096803fbdd5129b9e253f01cac07660405160405180910390a250565b600073ffffffffffffffffffffffffffffffffffffffff168173ffffffffffffffffffffffffffffffffffffffff16141515156102e557600080fd5b6102ef82826101bb565b15156102fa57600080fd5b60008260000160008373ffffffffffffffffffffffffffffffffffffffff1673ffffffffffffffffffffffffffffffffffffffff16815260200190815260200160002060006101000a81548160ff0219169083151502179055505050565b600073ffffffffffffffffffffffffffffffffffffffff168173ffffffffffffffffffffffffffffffffffffffff161415151561039457600080fd5b61039e82826101bb565b1515156103aa57600080fd5b60018260000160008373ffffffffffffffffffffffffffffffffffffffff1673ffffffffffffffffffffffffffffffffffffffff16815260200190815260200160002060006101000a81548160ff021916908315150217905550505056fea165627a7a7230582043689998be8ae456c81b96d9db700283459b1936cafb99dc44b4fa16a37eca130029",
  "source": "pragma solidity ^0.5.0;\n\n// Import the library 'Roles'\nimport \"./Roles.sol\";\n\n// Define a contract 'RegulatorRole' to manage this role - add, remove, check\ncontract RegulatorRole {\n  using Roles for Roles.Role;\n\n  // Define 2 events, one for Adding, and other for Removing\n  event RegulatorAdded(address indexed account);\n  event RegulatorRemoved(address indexed account);\n\n  // Define a struct 'Regulators' by inheriting from 'Roles' library, struct Role\nRoles.Role private Regulator;\n\n  // In the constructor make the address that deploys this contract the 1st Regulator\n  constructor() public {\n    _addRegulator(msg.sender);\n  }\n\n  // Define a modifier that checks to see if msg.sender has the appropriate role\n  modifier onlyRegulator() {\n    require(isRegulator(msg.sender),'Not a Regulator address');\n    _;\n  }\n\n  // Define a function 'isRegulator' to check this role\n  function isRegulator(address account) public view returns (bool) {\n    return Regulator.has(account);\n  }\n\n  // Define a function 'addRegulator' that adds this role\n  function addRegulator(address account) public {\n   _addRegulator(account);\n  }\n\n  // Define a function 'renounceRegulator' to renounce this role\n  function renounceRegulator() public {\n    _removeRegulator(msg.sender);\n  }\n\n  // Define an internal function '_addRegulator' to add this role, called by 'addRegulator'\n  function _addRegulator(address account) internal {\n    Regulator.add(account);\n    emit RegulatorAdded(account);\n  }\n\n  // Define an internal function '_removeRegulator' to remove this role, called by 'removeRegulator'\n  function _removeRegulator(address account) internal {\n    Regulator.remove(account);\n    emit RegulatorRemoved(account);\n  }\n}",
  "sourcePath": "D:\\Blockchain\\Udacity\\Project6B\\TunaFish\\project\\contracts\\tunaaccesscontrol\\RegulatorRole.sol",
  "compiler": {
    "name": "solc",
    "version": "0.5.0+commit.1d4f565a.Emscripten.clang"
  },
  "schemaVersion": "3.0.9",
  "updatedAt": "2019-05-28T09:24:11.188Z",
  "devdoc": {
    "methods": {}
  },
  "userdoc": {
    "methods": {}
  }
}