{
  "contractName": "RestaurantRole",
  "abi": [
    {
      "inputs": [],
      "payable": false,
      "stateMutability": "nonpayable",
      "type": "constructor"
    },
    {
      "anonymous": false,
      "inputs": [
        {
          "indexed": true,
          "name": "account",
          "type": "address"
        }
      ],
      "name": "RestaurantAdded",
      "type": "event"
    },
    {
      "anonymous": false,
      "inputs": [
        {
          "indexed": true,
          "name": "account",
          "type": "address"
        }
      ],
      "name": "RestaurantRemoved",
      "type": "event"
    },
    {
      "constant": true,
      "inputs": [
        {
          "name": "account",
          "type": "address"
        }
      ],
      "name": "isRestaurant",
      "outputs": [
        {
          "name": "",
          "type": "bool"
        }
      ],
      "payable": false,
      "stateMutability": "view",
      "type": "function"
    },
    {
      "constant": false,
      "inputs": [
        {
          "name": "account",
          "type": "address"
        }
      ],
      "name": "addRestaurant",
      "outputs": [],
      "payable": false,
      "stateMutability": "nonpayable",
      "type": "function"
    },
    {
      "constant": false,
      "inputs": [],
      "name": "renounceRestaurant",
      "outputs": [],
      "payable": false,
      "stateMutability": "nonpayable",
      "type": "function"
    }
  ],
  "bytecode": "0x608060405234801561001057600080fd5b506100293361002e640100000000026401000000009004565b6101e8565b61004f816000610095640100000000026102a9179091906401000000009004565b8073ffffffffffffffffffffffffffffffffffffffff167f30fdfb5b96c8f1d53ce2c2df0c23849ad3b9a86a4b0aae4303d182d635593c4860405160405180910390a250565b600073ffffffffffffffffffffffffffffffffffffffff168173ffffffffffffffffffffffffffffffffffffffff16141515156100d157600080fd5b6100ea8282610154640100000000026401000000009004565b1515156100f657600080fd5b60018260000160008373ffffffffffffffffffffffffffffffffffffffff1673ffffffffffffffffffffffffffffffffffffffff16815260200190815260200160002060006101000a81548160ff0219169083151502179055505050565b60008073ffffffffffffffffffffffffffffffffffffffff168273ffffffffffffffffffffffffffffffffffffffff161415151561019157600080fd5b8260000160008373ffffffffffffffffffffffffffffffffffffffff1673ffffffffffffffffffffffffffffffffffffffff16815260200190815260200160002060009054906101000a900460ff16905092915050565b610434806101f76000396000f3fe608060405260043610610057576000357c0100000000000000000000000000000000000000000000000000000000900463ffffffff168063328a8cc41461005c5780637a965d6b146100ad5780638e673a2d146100c4575b600080fd5b34801561006857600080fd5b506100ab6004803603602081101561007f57600080fd5b81019080803573ffffffffffffffffffffffffffffffffffffffff16906020019092919050505061012d565b005b3480156100b957600080fd5b506100c2610139565b005b3480156100d057600080fd5b50610113600480360360208110156100e757600080fd5b81019080803573ffffffffffffffffffffffffffffffffffffffff169060200190929190505050610144565b604051808215151515815260200191505060405180910390f35b61013681610161565b50565b610142336101bb565b565b600061015a82600061021590919063ffffffff16565b9050919050565b6101758160006102a990919063ffffffff16565b8073ffffffffffffffffffffffffffffffffffffffff167f30fdfb5b96c8f1d53ce2c2df0c23849ad3b9a86a4b0aae4303d182d635593c4860405160405180910390a250565b6101cf81600061035990919063ffffffff16565b8073ffffffffffffffffffffffffffffffffffffffff167fe2f8baf829f0cb6d609190eec3e8755addaa195065d640434d2ceecb9944c5f160405160405180910390a250565b60008073ffffffffffffffffffffffffffffffffffffffff168273ffffffffffffffffffffffffffffffffffffffff161415151561025257600080fd5b8260000160008373ffffffffffffffffffffffffffffffffffffffff1673ffffffffffffffffffffffffffffffffffffffff16815260200190815260200160002060009054906101000a900460ff16905092915050565b600073ffffffffffffffffffffffffffffffffffffffff168173ffffffffffffffffffffffffffffffffffffffff16141515156102e557600080fd5b6102ef8282610215565b1515156102fb57600080fd5b60018260000160008373ffffffffffffffffffffffffffffffffffffffff1673ffffffffffffffffffffffffffffffffffffffff16815260200190815260200160002060006101000a81548160ff0219169083151502179055505050565b600073ffffffffffffffffffffffffffffffffffffffff168173ffffffffffffffffffffffffffffffffffffffff161415151561039557600080fd5b61039f8282610215565b15156103aa57600080fd5b60008260000160008373ffffffffffffffffffffffffffffffffffffffff1673ffffffffffffffffffffffffffffffffffffffff16815260200190815260200160002060006101000a81548160ff021916908315150217905550505056fea165627a7a72305820d5aaec722bb46239382b30acef91eedf18e1c301e8fd460e15d19f56094feb1a0029",
  "source": "pragma solidity ^0.5.0;\n\n// Import the library 'Roles'\nimport \"./Roles.sol\";\n\n// Define a contract 'RestaurantRole' to manage this role - add, remove, check\ncontract RestaurantRole {\n  using Roles for Roles.Role;\n\n  // Define 2 events, one for Adding, and other for Removing\n    event RestaurantAdded(address indexed account);\n    event RestaurantRemoved(address indexed account);\n  // Define a struct 'Restaurants' by inheriting from 'Roles' library, struct Role\n  Roles.Role private Restaurant;\n\n  // In the constructor make the address that deploys this contract the 1st Restaurant\n  constructor() public {\n  _addRestaurant(msg.sender);\n  }\n\n  // Define a modifier that checks to see if msg.sender has the appropriate role\n  modifier onlyRestaurant() {\n   require(isRestaurant(msg.sender),'Not a Restaurant address');\n   _;\n  }\n\n  // Define a function 'isRestaurant' to check this role\n  function isRestaurant(address account) public view returns (bool) {\n   return Restaurant.has(account);\n  }\n\n  // Define a function 'addRestaurant' that adds this role\n  function addRestaurant(address account) public {\n   _addRestaurant(account);\n  }\n\n  // Define a function 'renounceRestaurant' to renounce this role\n  function renounceRestaurant() public {\n   _removeRestaurant(msg.sender);\n  }\n\n  // Define an internal function '_addRestaurant' to add this role, called by 'addRestaurant'\n  function _addRestaurant(address account) internal {\n  Restaurant.add(account);\n  emit RestaurantAdded(account);\n  }\n\n  // Define an internal function '_removeRestaurant' to remove this role, called by 'removeRestaurant'\n  function _removeRestaurant(address account) internal {\n  Restaurant.remove(account);\n  emit RestaurantRemoved(account);\n  }\n}",
  "sourcePath": "D:\\Blockchain\\Udacity\\Project6B\\TunaFish\\project\\contracts\\tunaaccesscontrol\\RestaurantRole.sol",
  "compiler": {
    "name": "solc",
    "version": "0.5.0+commit.1d4f565a.Emscripten.clang"
  },
  "schemaVersion": "3.0.9",
  "updatedAt": "2019-05-28T09:24:11.192Z",
  "devdoc": {
    "methods": {}
  },
  "userdoc": {
    "methods": {}
  }
}