{
  "contractName": "SupplyChain",
  "abi": [
    {
      "constant": false,
      "inputs": [],
      "name": "renounceFisherman",
      "outputs": [],
      "payable": false,
      "stateMutability": "nonpayable",
      "type": "function"
    },
    {
      "constant": false,
      "inputs": [],
      "name": "renounceRegulator",
      "outputs": [],
      "payable": false,
      "stateMutability": "nonpayable",
      "type": "function"
    },
    {
      "constant": false,
      "inputs": [
        {
          "name": "account",
          "type": "address"
        }
      ],
      "name": "addRestaurant",
      "outputs": [],
      "payable": false,
      "stateMutability": "nonpayable",
      "type": "function"
    },
    {
      "constant": true,
      "inputs": [
        {
          "name": "account",
          "type": "address"
        }
      ],
      "name": "isRegulator",
      "outputs": [
        {
          "name": "",
          "type": "bool"
        }
      ],
      "payable": false,
      "stateMutability": "view",
      "type": "function"
    },
    {
      "constant": false,
      "inputs": [],
      "name": "renounceRestaurant",
      "outputs": [],
      "payable": false,
      "stateMutability": "nonpayable",
      "type": "function"
    },
    {
      "constant": true,
      "inputs": [
        {
          "name": "account",
          "type": "address"
        }
      ],
      "name": "isRestaurant",
      "outputs": [
        {
          "name": "",
          "type": "bool"
        }
      ],
      "payable": false,
      "stateMutability": "view",
      "type": "function"
    },
    {
      "constant": false,
      "inputs": [
        {
          "name": "account",
          "type": "address"
        }
      ],
      "name": "addFisherman",
      "outputs": [],
      "payable": false,
      "stateMutability": "nonpayable",
      "type": "function"
    },
    {
      "constant": false,
      "inputs": [
        {
          "name": "account",
          "type": "address"
        }
      ],
      "name": "addRegulator",
      "outputs": [],
      "payable": false,
      "stateMutability": "nonpayable",
      "type": "function"
    },
    {
      "constant": true,
      "inputs": [
        {
          "name": "account",
          "type": "address"
        }
      ],
      "name": "isFisherman",
      "outputs": [
        {
          "name": "",
          "type": "bool"
        }
      ],
      "payable": false,
      "stateMutability": "view",
      "type": "function"
    },
    {
      "inputs": [],
      "payable": true,
      "stateMutability": "payable",
      "type": "constructor"
    },
    {
      "anonymous": false,
      "inputs": [
        {
          "indexed": false,
          "name": "upc",
          "type": "uint256"
        }
      ],
      "name": "Caught",
      "type": "event"
    },
    {
      "anonymous": false,
      "inputs": [
        {
          "indexed": false,
          "name": "upc",
          "type": "uint256"
        }
      ],
      "name": "Recorded",
      "type": "event"
    },
    {
      "anonymous": false,
      "inputs": [
        {
          "indexed": false,
          "name": "upc",
          "type": "uint256"
        }
      ],
      "name": "Audited",
      "type": "event"
    },
    {
      "anonymous": false,
      "inputs": [
        {
          "indexed": false,
          "name": "upc",
          "type": "uint256"
        }
      ],
      "name": "Queried",
      "type": "event"
    },
    {
      "anonymous": false,
      "inputs": [
        {
          "indexed": false,
          "name": "upc",
          "type": "uint256"
        }
      ],
      "name": "Bought",
      "type": "event"
    },
    {
      "anonymous": false,
      "inputs": [
        {
          "indexed": true,
          "name": "account",
          "type": "address"
        }
      ],
      "name": "RestaurantAdded",
      "type": "event"
    },
    {
      "anonymous": false,
      "inputs": [
        {
          "indexed": true,
          "name": "account",
          "type": "address"
        }
      ],
      "name": "RestaurantRemoved",
      "type": "event"
    },
    {
      "anonymous": false,
      "inputs": [
        {
          "indexed": true,
          "name": "account",
          "type": "address"
        }
      ],
      "name": "RegulatorAdded",
      "type": "event"
    },
    {
      "anonymous": false,
      "inputs": [
        {
          "indexed": true,
          "name": "account",
          "type": "address"
        }
      ],
      "name": "RegulatorRemoved",
      "type": "event"
    },
    {
      "anonymous": false,
      "inputs": [
        {
          "indexed": true,
          "name": "account",
          "type": "address"
        }
      ],
      "name": "FishermanAdded",
      "type": "event"
    },
    {
      "anonymous": false,
      "inputs": [
        {
          "indexed": true,
          "name": "account",
          "type": "address"
        }
      ],
      "name": "FishermanRemoved",
      "type": "event"
    },
    {
      "constant": false,
      "inputs": [
        {
          "name": "_upc",
          "type": "uint256"
        },
        {
          "name": "_originFishermanID",
          "type": "address"
        },
        {
          "name": "_originCoastLocation",
          "type": "string"
        }
      ],
      "name": "catchTuna",
      "outputs": [],
      "payable": false,
      "stateMutability": "nonpayable",
      "type": "function"
    },
    {
      "constant": false,
      "inputs": [
        {
          "name": "_upc",
          "type": "uint256"
        },
        {
          "name": "_price",
          "type": "uint256"
        },
        {
          "name": "_tunaNotes",
          "type": "string"
        }
      ],
      "name": "recordTuna",
      "outputs": [],
      "payable": false,
      "stateMutability": "nonpayable",
      "type": "function"
    },
    {
      "constant": false,
      "inputs": [
        {
          "name": "_upc",
          "type": "uint256"
        },
        {
          "name": "_auditStatus",
          "type": "string"
        }
      ],
      "name": "auditTuna",
      "outputs": [],
      "payable": false,
      "stateMutability": "nonpayable",
      "type": "function"
    },
    {
      "constant": true,
      "inputs": [
        {
          "name": "_upc",
          "type": "uint256"
        }
      ],
      "name": "queryTuna",
      "outputs": [
        {
          "name": "ownerID",
          "type": "address"
        },
        {
          "name": "originCoastLocation",
          "type": "string"
        },
        {
          "name": "tunaNotes",
          "type": "string"
        },
        {
          "name": "tunaPrice",
          "type": "uint256"
        },
        {
          "name": "tunaState",
          "type": "uint8"
        },
        {
          "name": "regulatorID",
          "type": "address"
        },
        {
          "name": "auditStatus",
          "type": "string"
        }
      ],
      "payable": false,
      "stateMutability": "view",
      "type": "function"
    },
    {
      "constant": false,
      "inputs": [
        {
          "name": "_upc",
          "type": "uint256"
        },
        {
          "name": "_price",
          "type": "uint256"
        }
      ],
      "name": "buyTuna",
      "outputs": [],
      "payable": true,
      "stateMutability": "payable",
      "type": "function"
    }
  ],
  "bytecode": "0x60806040526200001e3362000068640100000000026401000000009004565b6200003833620000d2640100000000026401000000009004565b62000052336200013c640100000000026401000000009004565b60016005819055506001600481905550620002fe565b6200008c816000620001a66401000000000262001bc7179091906401000000009004565b8073ffffffffffffffffffffffffffffffffffffffff167fed8c08737b37aef2af953c3b930fa5e3f9a03f87a0a5a1e78eea37cdcbea99fc60405160405180910390a250565b620000f6816001620001a66401000000000262001bc7179091906401000000009004565b8073ffffffffffffffffffffffffffffffffffffffff167f2860b5ba44f983f8f363ee6eeb3c24cbca3096803fbdd5129b9e253f01cac07660405160405180910390a250565b62000160816002620001a66401000000000262001bc7179091906401000000009004565b8073ffffffffffffffffffffffffffffffffffffffff167f30fdfb5b96c8f1d53ce2c2df0c23849ad3b9a86a4b0aae4303d182d635593c4860405160405180910390a250565b600073ffffffffffffffffffffffffffffffffffffffff168173ffffffffffffffffffffffffffffffffffffffff1614151515620001e357600080fd5b620001fe828262000269640100000000026401000000009004565b1515156200020b57600080fd5b60018260000160008373ffffffffffffffffffffffffffffffffffffffff1673ffffffffffffffffffffffffffffffffffffffff16815260200190815260200160002060006101000a81548160ff0219169083151502179055505050565b60008073ffffffffffffffffffffffffffffffffffffffff168273ffffffffffffffffffffffffffffffffffffffff1614151515620002a757600080fd5b8260000160008373ffffffffffffffffffffffffffffffffffffffff1673ffffffffffffffffffffffffffffffffffffffff16815260200190815260200160002060009054906101000a900460ff16905092915050565b611dc8806200030e6000396000f3fe6080604052600436106100d0576000357c0100000000000000000000000000000000000000000000000000000000900463ffffffff16806307aa94d6146100d55780631beadbe2146100ec578063328a8cc41461010357806354fc9169146101545780635ecf35a0146101bd5780637a965d6b146103cb5780638e673a2d146103e25780639c8a89381461044b578063a5aab8531461049c578063ac63f3c71461058e578063d9033994146105df578063df1bf686146106bb578063e2120f4f146106f3578063f868e6ba146107c5575b600080fd5b3480156100e157600080fd5b506100ea61082e565b005b3480156100f857600080fd5b50610101610839565b005b34801561010f57600080fd5b506101526004803603602081101561012657600080fd5b81019080803573ffffffffffffffffffffffffffffffffffffffff169060200190929190505050610844565b005b34801561016057600080fd5b506101a36004803603602081101561017757600080fd5b81019080803573ffffffffffffffffffffffffffffffffffffffff169060200190929190505050610850565b604051808215151515815260200191505060405180910390f35b3480156101c957600080fd5b506101f6600480360360208110156101e057600080fd5b810190808035906020019092919050505061086d565b604051808873ffffffffffffffffffffffffffffffffffffffff1673ffffffffffffffffffffffffffffffffffffffff168152602001806020018060200187815260200186600381111561024657fe5b60ff1681526020018573ffffffffffffffffffffffffffffffffffffffff1673ffffffffffffffffffffffffffffffffffffffff1681526020018060200184810384528a818151815260200191508051906020019080838360005b838110156102bc5780820151818401526020810190506102a1565b50505050905090810190601f1680156102e95780820380516001836020036101000a031916815260200191505b50848103835289818151815260200191508051906020019080838360005b83811015610322578082015181840152602081019050610307565b50505050905090810190601f16801561034f5780820380516001836020036101000a031916815260200191505b50848103825285818151815260200191508051906020019080838360005b8381101561038857808201518184015260208101905061036d565b50505050905090810190601f1680156103b55780820380516001836020036101000a031916815260200191505b509a505050505050505050505060405180910390f35b3480156103d757600080fd5b506103e0610b54565b005b3480156103ee57600080fd5b506104316004803603602081101561040557600080fd5b81019080803573ffffffffffffffffffffffffffffffffffffffff169060200190929190505050610b5f565b604051808215151515815260200191505060405180910390f35b34801561045757600080fd5b5061049a6004803603602081101561046e57600080fd5b81019080803573ffffffffffffffffffffffffffffffffffffffff169060200190929190505050610b7c565b005b3480156104a857600080fd5b5061058c600480360360608110156104bf57600080fd5b8101908080359060200190929190803573ffffffffffffffffffffffffffffffffffffffff1690602001909291908035906020019064010000000081111561050657600080fd5b82018360208201111561051857600080fd5b8035906020019184600183028401116401000000008311171561053a57600080fd5b91908080601f016020809104026020016040519081016040528093929190818152602001838380828437600081840152601f19601f820116905080830192505050505050509192919290505050610b88565b005b34801561059a57600080fd5b506105dd600480360360208110156105b157600080fd5b81019080803573ffffffffffffffffffffffffffffffffffffffff169060200190929190505050610f02565b005b3480156105eb57600080fd5b506106b96004803603606081101561060257600080fd5b8101908080359060200190929190803590602001909291908035906020019064010000000081111561063357600080fd5b82018360208201111561064557600080fd5b8035906020019184600183028401116401000000008311171561066757600080fd5b91908080601f016020809104026020016040519081016040528093929190818152602001838380828437600081840152601f19601f820116905080830192505050505050509192919290505050610f0e565b005b6106f1600480360360408110156106d157600080fd5b810190808035906020019092919080359060200190929190505050611205565b005b3480156106ff57600080fd5b506107c36004803603604081101561071657600080fd5b81019080803590602001909291908035906020019064010000000081111561073d57600080fd5b82018360208201111561074f57600080fd5b8035906020019184600183028401116401000000008311171561077157600080fd5b91908080601f016020809104026020016040519081016040528093929190818152602001838380828437600081840152601f19601f820116905080830192505050505050509192919290505050611628565b005b3480156107d157600080fd5b50610814600480360360208110156107e857600080fd5b81019080803573ffffffffffffffffffffffffffffffffffffffff16906020019092919050505061184b565b604051808215151515815260200191505060405180910390f35b61083733611868565b565b610842336118c2565b565b61084d8161191c565b50565b600061086682600161197690919063ffffffff16565b9050919050565b6000606080600080600060606006600089815260200190815260200160002060020160009054906101000a900473ffffffffffffffffffffffffffffffffffffffff16600660008a8152602001908152602001600020600401600660008b8152602001908152602001600020600501600660008c815260200190815260200160002060060154600660008d815260200190815260200160002060070160009054906101000a900460ff16600660008e815260200190815260200160002060070160019054906101000a900473ffffffffffffffffffffffffffffffffffffffff16600660008f8152602001908152602001600020600801869650858054600181600116156101000203166002900480601f0160208091040260200160405190810160405280929190818152602001828054600181600116156101000203166002900480156109fc5780601f106109d1576101008083540402835291602001916109fc565b820191906000526020600020905b8154815290600101906020018083116109df57829003601f168201915b50505050509550848054600181600116156101000203166002900480601f016020809104026020016040519081016040528092919081815260200182805460018160011615610100020316600290048015610a985780601f10610a6d57610100808354040283529160200191610a98565b820191906000526020600020905b815481529060010190602001808311610a7b57829003601f168201915b50505050509450808054600181600116156101000203166002900480601f016020809104026020016040519081016040528092919081815260200182805460018160011615610100020316600290048015610b345780601f10610b0957610100808354040283529160200191610b34565b820191906000526020600020905b815481529060010190602001808311610b1757829003601f168201915b505050505090509650965096509650965096509650919395979092949650565b610b5d33611a0a565b565b6000610b7582600261197690919063ffffffff16565b9050919050565b610b8581611a64565b50565b610b913361184b565b1515610c05576040517f08c379a000000000000000000000000000000000000000000000000000000000815260040180806020018281038252600f8152602001807f4e6f742061204669736865726d616e000000000000000000000000000000000081525060200191505060405180910390fd5b6101606040519081016040528060055481526020018481526020013373ffffffffffffffffffffffffffffffffffffffff1681526020018373ffffffffffffffffffffffffffffffffffffffff168152602001828152602001602060405190810160405280600081525081526020016000815260200160006003811115610c8857fe5b8152602001600073ffffffffffffffffffffffffffffffffffffffff16815260200160206040519081016040528060008152508152602001600073ffffffffffffffffffffffffffffffffffffffff1681525060066000858152602001908152602001600020600082015181600001556020820151816001015560408201518160020160006101000a81548173ffffffffffffffffffffffffffffffffffffffff021916908373ffffffffffffffffffffffffffffffffffffffff16021790555060608201518160030160006101000a81548173ffffffffffffffffffffffffffffffffffffffff021916908373ffffffffffffffffffffffffffffffffffffffff1602179055506080820151816004019080519060200190610dac929190611c77565b5060a0820151816005019080519060200190610dc9929190611c77565b5060c0820151816006015560e08201518160070160006101000a81548160ff02191690836003811115610df857fe5b02179055506101008201518160070160016101000a81548173ffffffffffffffffffffffffffffffffffffffff021916908373ffffffffffffffffffffffffffffffffffffffff160217905550610120820151816008019080519060200190610e62929190611c77565b506101408201518160090160006101000a81548173ffffffffffffffffffffffffffffffffffffffff021916908373ffffffffffffffffffffffffffffffffffffffff1602179055509050506001600554016005819055506001600454016004819055507f529ae736ca8a70c286dd44931d886d4fd0b014c75625a0bc20e22ffbd547703f836040518082815260200191505060405180910390a1505050565b610f0b81611abe565b50565b8260006003811115610f1c57fe5b6006600083815260200190815260200160002060070160009054906101000a900460ff166003811115610f4b57fe5b141515610fc0576040517f08c379a000000000000000000000000000000000000000000000000000000000815260040180806020018281038252601e8152602001807f54756e61207374617465206973207374696c6c206e6f7420436175676874000081525060200191505060405180910390fd5b610fc93361184b565b151561103d576040517f08c379a000000000000000000000000000000000000000000000000000000000815260040180806020018281038252600f8152602001807f4e6f742061204669736865726d616e000000000000000000000000000000000081525060200191505060405180910390fd5b6006600085815260200190815260200160002060020160009054906101000a900473ffffffffffffffffffffffffffffffffffffffff168073ffffffffffffffffffffffffffffffffffffffff163373ffffffffffffffffffffffffffffffffffffffff1614151561113d576040517f08c379a00000000000000000000000000000000000000000000000000000000081526004018080602001828103825260268152602001807f43616c6c657220766572696669636174696f6e20776173206e6f74207375636381526020017f65737366756c000000000000000000000000000000000000000000000000000081525060400191505060405180910390fd5b82600660008781526020019081526020016000206005019080519060200190611167929190611cf7565b5083600660008781526020019081526020016000206006018190555060016006600087815260200190815260200160002060070160006101000a81548160ff021916908360038111156111b657fe5b02179055506001600554016005819055507f3418577b9d6ee1f29ecaa9fa9bd19b32163a53ba06af0e8bb173490ff7cdf40b856040518082815260200191505060405180910390a15050505050565b816002600381111561121357fe5b6006600083815260200190815260200160002060070160009054906101000a900460ff16600381111561124257fe5b1415156112b7576040517f08c379a000000000000000000000000000000000000000000000000000000000815260040180806020018281038252601f8152602001807f54756e61207374617465206973207374696c6c206e6f7420417564697465640081525060200191505060405180910390fd5b6112c033610b5f565b1515611334576040517f08c379a00000000000000000000000000000000000000000000000000000000081526004018080602001828103825260188152602001807f4e6f7420612052657374617572616e742061646472657373000000000000000081525060200191505060405180910390fd5b60066000848152602001908152602001600020600601548034101515156113e9576040517f08c379a00000000000000000000000000000000000000000000000000000000081526004018080602001828103825260288152602001807f496e73756666696369656e7420616d6f756e7420666f72207468652071756f7481526020017f656420707269636500000000000000000000000000000000000000000000000081525060400191505060405180910390fd5b83600060066000838152602001908152602001600020600601549050600081340390506006600084815260200190815260200160002060090160009054906101000a900473ffffffffffffffffffffffffffffffffffffffff1673ffffffffffffffffffffffffffffffffffffffff166108fc829081150290604051600060405180830381858888f19350505050158015611488573d6000803e3d6000fd5b506006600088815260200190815260200160002060020160009054906101000a900473ffffffffffffffffffffffffffffffffffffffff1673ffffffffffffffffffffffffffffffffffffffff166108fc879081150290604051600060405180830381858888f19350505050158015611505573d6000803e3d6000fd5b50336006600089815260200190815260200160002060090160006101000a81548173ffffffffffffffffffffffffffffffffffffffff021916908373ffffffffffffffffffffffffffffffffffffffff160217905550336006600089815260200190815260200160002060020160006101000a81548173ffffffffffffffffffffffffffffffffffffffff021916908373ffffffffffffffffffffffffffffffffffffffff16021790555060036006600089815260200190815260200160002060070160006101000a81548160ff021916908360038111156115e357fe5b02179055507f4e08ba899977cf7d4c2964bce71c6b9a7ef76ee5166a4c1249a1e08016e33ef1876040518082815260200191505060405180910390a150505050505050565b816001600381111561163657fe5b6006600083815260200190815260200160002060070160009054906101000a900460ff16600381111561166557fe5b1415156116da576040517f08c379a00000000000000000000000000000000000000000000000000000000081526004018080602001828103825260208152602001807f54756e61207374617465206973207374696c6c206e6f74205265636f7264656481525060200191505060405180910390fd5b6116e333610850565b1515611757576040517f08c379a00000000000000000000000000000000000000000000000000000000081526004018080602001828103825260178152602001807f4e6f74206120526567756c61746f72206164647265737300000000000000000081525060200191505060405180910390fd5b336006600085815260200190815260200160002060070160016101000a81548173ffffffffffffffffffffffffffffffffffffffff021916908373ffffffffffffffffffffffffffffffffffffffff160217905550816006600085815260200190815260200160002060080190805190602001906117d6929190611cf7565b5060026006600085815260200190815260200160002060070160006101000a81548160ff0219169083600381111561180a57fe5b02179055507f79687301d55ce8c07d357ae3f6ca0cfb94888028f8a37faf94dd48f47e961eec836040518082815260200191505060405180910390a1505050565b600061186182600061197690919063ffffffff16565b9050919050565b61187c816000611b1890919063ffffffff16565b8073ffffffffffffffffffffffffffffffffffffffff167ff56c56653b8d7dabb804d2c9d05ae558d0ed3825cdf8922f4622e49985f4843760405160405180910390a250565b6118d6816001611b1890919063ffffffff16565b8073ffffffffffffffffffffffffffffffffffffffff167fc8ecc453f78c13ccc7596603b61935f29b99dc15bb91b91647e1ccf2469ad00a60405160405180910390a250565b611930816002611bc790919063ffffffff16565b8073ffffffffffffffffffffffffffffffffffffffff167f30fdfb5b96c8f1d53ce2c2df0c23849ad3b9a86a4b0aae4303d182d635593c4860405160405180910390a250565b60008073ffffffffffffffffffffffffffffffffffffffff168273ffffffffffffffffffffffffffffffffffffffff16141515156119b357600080fd5b8260000160008373ffffffffffffffffffffffffffffffffffffffff1673ffffffffffffffffffffffffffffffffffffffff16815260200190815260200160002060009054906101000a900460ff16905092915050565b611a1e816002611b1890919063ffffffff16565b8073ffffffffffffffffffffffffffffffffffffffff167fe2f8baf829f0cb6d609190eec3e8755addaa195065d640434d2ceecb9944c5f160405160405180910390a250565b611a78816000611bc790919063ffffffff16565b8073ffffffffffffffffffffffffffffffffffffffff167fed8c08737b37aef2af953c3b930fa5e3f9a03f87a0a5a1e78eea37cdcbea99fc60405160405180910390a250565b611ad2816001611bc790919063ffffffff16565b8073ffffffffffffffffffffffffffffffffffffffff167f2860b5ba44f983f8f363ee6eeb3c24cbca3096803fbdd5129b9e253f01cac07660405160405180910390a250565b600073ffffffffffffffffffffffffffffffffffffffff168173ffffffffffffffffffffffffffffffffffffffff1614151515611b5457600080fd5b611b5e8282611976565b1515611b6957600080fd5b60008260000160008373ffffffffffffffffffffffffffffffffffffffff1673ffffffffffffffffffffffffffffffffffffffff16815260200190815260200160002060006101000a81548160ff0219169083151502179055505050565b600073ffffffffffffffffffffffffffffffffffffffff168173ffffffffffffffffffffffffffffffffffffffff1614151515611c0357600080fd5b611c0d8282611976565b151515611c1957600080fd5b60018260000160008373ffffffffffffffffffffffffffffffffffffffff1673ffffffffffffffffffffffffffffffffffffffff16815260200190815260200160002060006101000a81548160ff0219169083151502179055505050565b828054600181600116156101000203166002900490600052602060002090601f016020900481019282601f10611cb857805160ff1916838001178555611ce6565b82800160010185558215611ce6579182015b82811115611ce5578251825591602001919060010190611cca565b5b509050611cf39190611d77565b5090565b828054600181600116156101000203166002900490600052602060002090601f016020900481019282601f10611d3857805160ff1916838001178555611d66565b82800160010185558215611d66579182015b82811115611d65578251825591602001919060010190611d4a565b5b509050611d739190611d77565b5090565b611d9991905b80821115611d95576000816000905550600101611d7d565b5090565b9056fea165627a7a7230582016bbe8827be90e4824d9e122a7517c9d048655fa1d8e6208ee1ee64d682b7ade0029",
  "source": "pragma solidity ^0.5.0;\n\nimport \"../tunaaccesscontrol/FishermanRole.sol\";\nimport \"../tunaaccesscontrol/RegulatorRole.sol\";\nimport \"../tunaaccesscontrol/RestaurantRole.sol\";\n\n// Define a contract 'Supplychain'\n\n\ncontract SupplyChain is FishermanRole, RegulatorRole, RestaurantRole {\n\n// Define 'owner'\n  address supplyChainOwner;\n\n  // Define a variable called 'upc' for Universal Product Code (UPC)\n  uint  upc;\n\n  // Define a variable called 'sku' for Stock Keeping Unit (SKU)\n  uint  sku;\n\n// Define enum 'State' with the following values:\n  enum State\n  {\n    Caught,  // 0\n    Recorded,  // 1\n    Audited,     // 2\n    Bought    // 3\n  }\n\n  State constant defaultState = State.Caught;\n\n  // Define a struct 'Item' with the following fields:\n  struct TunaFish {\n    uint    sku;  // Stock Keeping Unit (SKU)\n    uint    upc; // Universal Product Code (UPC), generated by the Fisherman, goes on the package, can be verified by the Restaurant\n    address payable ownerID;  // Metamask-Ethereum address of the current owner as the product moves through different stages\n    address originFishermanID; // Metamask-Ethereum address of the Fisherman\n    string  originCoastLocation;  // Coast Location - Latitude & Longitude\n    string  tunaNotes; // Tuna Notes\n    uint    tunaPrice; // Tuna Price\n    State   tunaState;  // Tuna State as represented in the enum above\n    address regulatorID;  // Metamask-Ethereum address of the Regulator\n    string auditStatus; //Status of the audit from Regulator\n    address payable restaurantID; // Metamask-Ethereum address of the Restaurant\n  }\n\n// Define a public mapping 'TunaFish' that maps the UPC to a Tuna Fish.\nmapping (uint => TunaFish) tunaFish;\n\n// Define a public mapping 'tunaHistory' that maps the UPC to an array of TxHash,\n// that track its journey through the supply chain -- to be sent from DApp.\n  mapping (uint => string[]) tunaHistory;\n\n// Define events with the same state values and accept 'upc' as input argument\n  event Caught(uint upc);\n  event Recorded(uint upc);\n  event Audited(uint upc);\n  event Queried(uint upc);\n  event Bought(uint upc);\n\n  // Define a modifer that checks to see if msg.sender == owner of the contract\n  /*modifier onlySupplyChainOwner() {\n    require(msg.sender == supplyChainOwner,'This is not a Supply Chain Owner address');\n    _;\n  }\n  */\n  // Define a modifer that verifies the Caller\n  modifier verifyCaller (address _address) {\n    require(msg.sender == _address,'Caller verification was not successful');\n    _;\n  }\n\n  // Define a modifier that checks if the paid amount is sufficient to cover the price\n  modifier paidEnough(uint _price) {\n    require(msg.value >= _price,'Insufficient amount for the quoted price');\n    _;\n  }\n\n// Define a modifier that checks the price and refunds the remaining balance\n  modifier checkValue(uint _upc) {\n    uint _price = tunaFish[_upc].tunaPrice;\n    uint amountToReturn = msg.value - _price;\n    tunaFish[_upc].restaurantID.transfer(amountToReturn);\n    _;\n  }\n\n  // Define a modifier that checks if an tunaState of a upc is Caught\n  modifier caught(uint _upc) {\n    require(tunaFish[_upc].tunaState == State.Caught,'Tuna state is still not Caught');\n    _;\n  }\n\n  // Define a modifier that checks if an tunaState of a upc is Recorded\n  modifier recorded(uint _upc) {\n    require(tunaFish[_upc].tunaState == State.Recorded,'Tuna state is still not Recorded');\n    _;\n  }\n\n// Define a modifier that checks if an tunaState of a upc is Audited\n  modifier audited(uint _upc) {\n    require(tunaFish[_upc].tunaState == State.Audited,'Tuna state is still not Audited');\n    _;\n  }\n\n  // Define a modifier that checks if an tunaState of a upc is Bought\n  modifier bought(uint _upc) {\n    require(tunaFish[_upc].tunaState == State.Bought,'Tuna state is still not Bought');\n    _;\n  }\n\n  // In the constructor set 'owner' to the address that instantiated the contract\n  // and set 'sku' to 1\n  // and set 'upc' to 1\n  constructor() public payable {\n    //supplyChainOwner = msg.sender;\n    sku = 1;\n    upc = 1;\n  }\n\n  // Define a function 'kill' if required\n  // function kill() public onlySupplyChainOwner() {\n  //   if (msg.sender == supplyChainOwner) {\n  //     selfdestruct(msg.sender);\n  //   }\n  // }\n\n// Define a function 'catchTuna' that allows a Fisherman to mark an item 'Caught'\nfunction catchTuna(uint _upc, address _originFishermanID, string memory _originCoastLocation) public\nonlyFisherman()\n{\n    // Add the new item\n  tunaFish[_upc] = TunaFish({\n    upc: _upc,\n    sku: sku,\n    ownerID: msg.sender,\n  originFishermanID: _originFishermanID,\n  originCoastLocation: _originCoastLocation,\n  tunaNotes: \"\",\n  tunaPrice:0,\n  tunaState: defaultState,\n  regulatorID: address(0),\n  auditStatus: \"\",\n  restaurantID: address(0)\n  });\n  // Increment sku\n  sku = sku+1;\n  upc = upc+1;\n\n  // Emit the appropriate event\n  emit Caught(_upc);\n  }\n\n  // Define a function 'recordTuna' that allows a Fisherman to mark an item 'Recorded'\n  function recordTuna(uint _upc, uint _price, string memory _tunaNotes) public\n  // Call modifier to check if upc has passed previous supply chain stage\n  caught(_upc)\n\n  onlyFisherman()\n  // Call modifier to verify caller of this function\n  verifyCaller(tunaFish[_upc].ownerID)\n  {\n    // Update the appropriate fields\n    //tunaFish[_upc].tunaID = _upc+sku*10000;\n    tunaFish[_upc].tunaNotes = _tunaNotes;\n    tunaFish[_upc].tunaPrice = _price;\n    tunaFish[_upc].tunaState = State.Recorded;\n    sku = sku + 1;\n    // Emit the appropriate event\n   emit Recorded(_upc);\n  }\n\n  // Define a function 'auditTuna' that allows a Fisherman to mark an item 'Audited'\n  function auditTuna(uint _upc, string memory _auditStatus) public\n  // Call modifier to check if upc has passed previous supply chain stage\n  recorded(_upc)\n  // Call modifier to verify caller of this function\n  onlyRegulator()\n  {\n    // Update the appropriate fields\n    tunaFish[_upc].regulatorID = msg.sender;\n    tunaFish[_upc].auditStatus = _auditStatus;\n    tunaFish[_upc].tunaState = State.Audited;\n\n    // Emit the appropriate event\n    emit Audited(_upc);\n  }\n\n  // Define a function 'queryTuna' that allows the Restaurant to view Tuna details\n  function queryTuna(uint _upc) public\n  // Call modifier to check if upc has passed previous supply chain stage\n  view returns (\n    address ownerID,\n    string  memory originCoastLocation,\n    string  memory tunaNotes,\n    uint    tunaPrice,\n    State tunaState,\n    address regulatorID,\n    string memory auditStatus\n  )\n  {\n    return(\n    tunaFish[_upc].ownerID,\n    tunaFish[_upc].originCoastLocation,\n    tunaFish[_upc].tunaNotes,\n    tunaFish[_upc].tunaPrice,\n    tunaFish[_upc].tunaState,\n    tunaFish[_upc].regulatorID,\n    tunaFish[_upc].auditStatus\n    );\n  }\n\n  // Define a function 'buyTuna' that allows the Fisherman to mark an item 'Bought'\n  // Use the above defined modifiers to check if the TunaFish is audited, if the Restaurant\n  //  has paid enough and any excess ether sent is refunded back to the buyer\nfunction buyTuna(uint _upc, uint _price) public payable\n    // Call modifier to check if upc has passed previous supply chain stage\n    audited(_upc)\n    //Call modifier to verify the buyer\n    onlyRestaurant()\n    // Call modifer to check if buyer has paid enough\n    paidEnough(tunaFish[_upc].tunaPrice)\n    // Call modifer to send any excess ether back to buyer\n    checkValue(_upc)\n    {\n   // Transfer money to Fisherman\n    tunaFish[_upc].ownerID.transfer(_price);\n\n    // Update the appropriate fields - ownerID, distributorID, itemState\n    tunaFish[_upc].restaurantID = msg.sender;\n    tunaFish[_upc].ownerID = msg.sender;\n    tunaFish[_upc].tunaState = State.Bought;\n\n    // emit the appropriate event\n    emit Bought(_upc);\n  }\n}",
  "sourcePath": "D:\\Blockchain\\Udacity\\Project6B\\TunaFish\\project\\contracts\\tunabase\\SupplyChain.sol",
  "compiler": {
    "name": "solc",
    "version": "0.5.0+commit.1d4f565a.Emscripten.clang"
  },
  "schemaVersion": "3.0.9",
  "updatedAt": "2019-05-28T09:24:11.200Z",
  "devdoc": {
    "methods": {}
  },
  "userdoc": {
    "methods": {}
  }
}